:020000040800F2
:10000000680600208D010008910100089301000896
:100010009501000897010008990100080000000000
:100020000000000000000000000000009B0100082C
:100030009D010008000000009F010008A1010008C8
:10004000A3010008A3010008A3010008A301000800
:10005000A3010008A3010008A3010008A3010008F0
:10006000A3010008A3010008A3010008A3010008E0
:10007000A3010008A3010008A3010008A3010008D0
:10008000A3010008A3010008A3010008A3010008C0
:10009000A3010008A3010008A3010008A3010008B0
:1000A000A3010008A3010008A3010008A3010008A0
:1000B000A3010008A3010008A3010008A301000890
:1000C000A3010008A3010008A3010008A301000880
:1000D000A3010008A3010008A3010008A301000870
:1000E000A3010008A3010008A301000800F002F822
:1000F00000F03AF80AA090E8000C82448344AAF188
:100100000107DA4501D100F02FF8AFF2090EBAE885
:100110000F0013F0010F18BFFB1A43F0010318473B
:100120001816000038160000103A24BF78C878C1AD
:10013000FAD8520724BF30C830C144BF04680C60ED
:10014000704700000023002400250026103A28BF35
:1001500078C1FBD8520728BF30C148BF0B60704739
:100160001FB51FBD10B510BD00F03DFD1146FFF7D6
:10017000F7FF00F025F800F05BFD03B4FFF7F2FF96
:1001800003BC00F05FFD000030BF000008480047DE
:10019000FEE7FEE7FEE7FEE7FEE7FEE7FEE7FEE737
:1001A000FEE7FEE703480449024A044B704700009B
:1001B000ED000008680400206806002068040020A4
:1001C00000BF092000F0BCF9482000F04BF800F017
:1001D0001FFC012300221146202000F02BFB0123ED
:1001E0001A460021302000F025FB012302220021C5
:1001F000402000F01FFB012303220021502000F0CB
:1002000019FB0BA21021002000F0CDFB0CA2202135
:10021000002000F0C8FB0EA23021002000F0C3FB3C
:1002200000F016FA03E04FF4967000F036F8FAE7A3
:1002300020584420456C656374726F6E6963730067
:100240002020202020687474703A2F2F00000000B6
:10025000786467756F2E74616F62616F2E636F6D66
:10026000000000004FF0E021096921F004014FF087
:10027000E0221161C21700EB5272D210224B1A70A9
:100280001946097801EB4102C2EBC1114FF6FF722A
:1002900002EAC1011D4A1180704701461B4A1288BB
:1002A0004A434FF0E0235A6100229A6101221A6109
:1002B00000BF4FF0E022106910F0010F02D010F4DF
:1002C000803FF6D000224FF0E0231A619A61704718
:1002D00001460D4A12784A434FF0E0235A6100224A
:1002E0009A6101221A6100BF4FF0E022106910F0FC
:1002F000010F02D010F4803FF6D000224FF0E0232F
:100300001A619A617047000000000020020000207E
:10031000AC4A0A400243AC4B1A60704701460723BF
:1003200023EA01021202A84B1B1D18684FF6FF03B7
:100330001840A64B18431043A34B1B1D1860704771
:100340002DE9F0478046894614461D462046E117B0
:1003500004EB91714FEAA10AE11704EB9171891046
:10036000A4EB8101CFB2042000EBC700C7B228463E
:10037000FFF7D4FFC5F1040008FA00F60F2028416A
:1003800000EA0900064306F00F06202C0CDA90481C
:1003900000684FF0010101FA04F140EA01004FF05A
:1003A000E021C1F800010DE08A480068A4F12001B5
:1003B0004FF0010202FA01F240EA02004FF0E021A0
:1003C000C1F80401844850F82A0006FA07F140EA0F
:1003D0000100814941F82A00BDE8F08770B5044664
:1003E0000B46CE1701EB9676B010CE1701EB967642
:1003F000B610A1EB8606B606350E784B9B6943F026
:100400000103764EB3614FEAB63353F820300F261E
:10041000AE40B343724E46F82030334653F8203096
:1004200004FA05F633436E4E46F820306D4B1E68D5
:1004300001238B401E436B4B1E6012F0010F08D04E
:10044000684B0C331B6801268E403343654E0C36D7
:10045000336012F0020F08D0624B08331B6801268C
:100460008E4033435F4E0836336070BD00B50020C8
:100470005A490861C8601420486100208861C86139
:100480000846006840F00100086008464068564988
:1004900008405249486008460068544908404F499E
:1004A00008600846006820F480200860084640681C
:1004B00020F4FE0048600020886000214FF00060BA
:1004C000FFF726FF00BD10B53F480830006840F038
:1004D00004003D49083108604048C06940F0805040
:1004E0003E49C8614248406840F4807040494860D5
:1004F0000846006840F0040008600846006840F0C4
:1005000002000860FFF740FE10BD3048001D2E4974
:10051000091D0860704701464906304A926942F059
:1005200001022E4B9A612E4A083A526822F0E0628C
:100530002B4B083B5A601A4652680A435A60704770
:1005400030B504460025FFF791FF2448006840F4C9
:1005500080302249086000BF20480068400CFBD072
:100560004FF480601D494860A01EC4B20846406830
:1005700040EA844048600846406840F48030486063
:100580001C48006840F032001A49086013480068AF
:1005900040F080701149086000BF10480068400EAC
:1005A000FBD00E48406840F002000C49486005E06E
:1005B0000A484068C0F3870505F00305022DF7D10E
:1005C00030BD000080FFFF1F08ED00E00000FA05CD
:1005D00000E100E004E100E000E400E0001002407F
:1005E00008000140000401400000FFF8FFFFF6FE94
:1005F000007000400020024010B5FC4B19604FF025
:100600000003FB4CC4F8A4311A4618E00023F94C4F
:10061000236010F0800F04D0012304F10404236050
:1006200002E00023F44C23604FF00103F14C2360FF
:100630004FEA40634FEA136002F10103DAB2082A7D
:10064000E4DB0123ED4C2360E94CC4F8A03110BD7C
:1006500030B500241CE004F1B001C8B20021FFF75E
:10066000CBFF00210846FFF7C7FF00211020FFF74E
:10067000C3FF002508E0E24901EBC501085D012147
:10068000FFF7BAFF681CC5B2802DF4DB601CC4B252
:10069000082CE0DB30BD00B500218D20FFF7ACFF5A
:1006A00000211420FFF7A8FF0021AF20FFF7A4FFCF
:1006B00000BD00B500218D20FFF79EFF0021102016
:1006C000FFF79AFF0021AE20FFF796FF00BD30B57F
:1006D00000240CE0002506E00020C94901EBC5011B
:1006E0000855681CC5B2802DF6DB601CC4B2082C0E
:1006F000F0DBFFF7ADFF30BDF0B5144600267F28D4
:1007000001DC3F2900DDF0BD0B46CF1701EB577729
:10071000FF10C7F10707FAB2CF1701EB5777FF10A9
:10072000A1EBC707FDB2C5F107070123BB40DEB24D
:100730004CB1B34B03EBC0039B5C3343B04F07EBAF
:10074000C007BB5408E0AE4B03EBC0039B5CB34354
:10075000AB4F07EBC007BB5400BFD4E72DE9F04710
:1007600006460F4690469946DDF820A034460CE038
:100770003D4606E0524629462046FFF7BDFF681C6D
:10078000C5B24D45F6DD601CC4B24445F0DDFFF74F
:100790005FFFBDE8F0872DE9F04F80460C46154617
:1007A0001E46A346A5F12000C5B200273EE00C2E50
:1007B00007D105EB4500934901EB800010F8079045
:1007C00004E0914800EB051010F807904FF0000A84
:1007D00026E019F0800F05D021464046099AFFF720
:1007E0008BFF09E0099808B9012000E000200246CB
:1007F00021464046FFF780FF4FEA49604FEA106903
:10080000601CC4B2A4EB0B00B04205D15C4608F1F9
:10081000010000F0FF0806E00AF1010000F0FF0A05
:10082000BAF1080FD5DB00BF781CC7B2B742BEDBF8
:10083000BDE8F08F2DE9FF4F044690461D46A346C4
:100840004FF0000955E04FEA49604FEA106A6F48DF
:1008500000EB481010F80A60002717E016F0800F30
:1008600005D02A4620460199FFF746FF08E00DB95A
:10087000012000E00020024620460199FFF73CFFDE
:100880007006060E601CC4B2781CC7B2082FE5DBE8
:100890005E4800EB48110AF101000E5C002721E0E0
:1008A00016F0800F05D02A4620460199FFF724FF55
:1008B00008E00DB9012000E0002002462046019921
:1008C000FFF71AFF7006060E601CC4B2A4EB0B0003
:1008D000102805D15C460198401CC0B2019003E08D
:1008E000781CC7B2082FDBDB00BF09F1010000F064
:1008F000FF09B9F1100FA6DBBDE8FF8F10B5024666
:10090000012000E050430B00A1F10104E1B2F9D154
:1009100010BD2DE9FF4F81B0074691461E460E9D42
:100920004FF0000A002439E0301B401EC1B20A20FB
:10093000FFF7E4FFB9FBF0F00A21B0FBF1F201FB95
:100940001208BAF1000F16D1701EA04213DDB8F1E3
:10095000000F0ED10120AB4605EBDB71491001FB06
:1009600004710090C8B22B4620220299FFF713FFB2
:1009700012E04FF0010A0120AB4605EBDB71491094
:1009800001FB04710090C8B208F13001CAB22B46D5
:100990000299FFF700FF00BF601CC4B2B442C3DB82
:1009A00005B0BDE8F08F78B505460E46144618E050
:1009B0007A2D03DD002506F11000C6B23A2E04DDC3
:1009C000002005460646FFF782FE012000902278AF
:1009D000102331462846FFF7DEFE05F10800C5B2B8
:1009E000641C20780028E3D178BD0000A0012242D9
:1009F000000022428081214284812142A4012242BE
:100A000004000020520C0008C6100008B6160008AA
:100A100000B56F48806940F008006D49886108465C
:100A2000806940F0100088616A48006820F0FF008B
:100A300068490860084600686749084365490860D6
:100A400064480C30006840F0030062490C310860D3
:100A50006248406820F0FF006049486008464068EE
:100A600040F0330048600846C06840F44070C860F9
:100A70000021AE20FFF7C0FD0021D520FFF7BCFD0F
:100A800000215020FFF7B8FD0021A820FFF7B4FD9A
:100A900000213F20FFF7B0FD0021D320FFF7ACFD80
:100AA00000210846FFF7A8FD00214020FFF7A4FD24
:100AB00000218D20FFF7A0FD00211420FFF79CFDF1
:100AC00000212020FFF798FD00210220FFF794FD70
:100AD0000021A120FFF790FD0021C020FFF78CFD31
:100AE0000021DA20FFF788FD00211220FFF784FDA6
:100AF00000218120FFF780FD0021EF20FFF77CFD22
:100B00000021D920FFF778FD0021F120FFF774FDC7
:100B10000021DB20FFF770FD00213020FFF76CFD86
:100B20000021A420FFF768FD0021A620FFF764FD47
:100B30000021AF20FFF760FDFFF7C9FD00BD2DE9E3
:100B4000F04304460E4617469846A01B01D40146C2
:100B500000E0414201F0FF09002510E0B44206DC4C
:100B60006119C8B242463946FFF7C6FD05E0611B70
:100B7000C8B242463946FFF7BFFD681CC5B24D45B5
:100B8000ECDDBDE8F0832DE9F04304460E46174640
:100B90009846A01B01D4014600E0414201F0FF0944
:100BA000002510E0B44206DC6019C1B24246384666
:100BB000FFF7A2FD05E0601BC1B242463846FFF7D1
:100BC0009BFD681CC5B24D45ECDDBDE8F08300001F
:100BD00000100240000C0140330000F00010014002
:100BE000704770477047754600F028F8AE4605001C
:100BF0006946534620F00700854618B020B5FFF738
:100C0000D1FABDE820404FF000064FF000074FF04A
:100C100000084FF0000B21F00701AC46ACE8C0091A
:100C2000ACE8C009ACE8C009ACE8C0098D46704723
:100C30000446AFF300802046FFF79FFA0048704754
:100C40000404002001491820ABBEFEE72600020084
:100C500070470000000000000000000000000000DD
:100C600000003F4000000000000000003000400095
:100C700030004000000009000BC03D000BC03D00EB
:100C8000090018C024407FE0224031800000180095
:100C900024C01B000D803240018003801C4027408F
:100CA0001C800740004010006000000000000000B1
:100CB00000000000000000001F80204040200000D5
:100CC000402020401F8000000000090006001F8017
:100CD000060009000000040004003F800400040036
:100CE0000000001000600000000000000000040090
:100CF00004000400040004000000000000400000A4
:100D0000000000000000002001C006003800400084
:100D100000001F802040204020401F800000000075
:100D200010403FC000400000000018C02140224099
:100D300024401840000010802040244024401B80A4
:100D4000000002000D0011003FC0014000003C8087
:100D5000244024402440238000001F80244024405D
:100D60003440038000003000200027C038002000FD
:100D700000001B802440244024401B8000001C00F5
:100D800022C0224022401F800000000000000840D6
:100D900000000000000000000000046000000000EF
:100DA0000000000004000A001100208040400900FB
:100DB00009000900090009000000000040402080EF
:100DC00011000A000400180020002340240018002D
:100DD00000001F802040274029401F4000000040A5
:100DE00007C039000F0001C0004020403FC0244030
:100DF00024401B8000001F80204020402040308085
:100E0000000020403FC0204020401F8000002040C4
:100E10003FC024402E4030C0000020403FC024404E
:100E20002E00300000000F00108020402240338050
:100E3000020020403FC0040004003FC0204020408A
:100E400020403FC0204020400000006020202020A3
:100E50003FC02000200020403FC024400B0030C095
:100E6000204020403FC020400040004000C03FC024
:100E70003C0003C03C003FC0000020403FC00C408D
:100E800023003FC020001F802040204020401F80C2
:100E9000000020403FC024402400180000001F80B4
:100EA0002140214020E01FA0000020403FC02440FE
:100EB000260019C0004018C0244024402240318040
:100EC0000000300020403FC02040300000002000E3
:100ED0003F80004000403F80200020003E0001C0D5
:100EE000070038002000380007C03C0007C0380069
:100EF0000000204039C0060039C02040000020001A
:100F0000384007C0384020000000304021C0264053
:100F1000384020C00000000000007FE0402040205A
:100F20000000000070000C00038000400000000082
:100F3000402040207FE00000000000002000400032
:100F40002000000000000010001000100010001031
:100F50000010000000004000000000000000000041
:100F600002800540054003C0004020003FC004400F
:100F70000440038000000000038004400440064059
:100F8000000000000380044024403FC000400000F7
:100F900003800540054003400000000004401FC0DE
:100FA000244024402000000002E005500550065077
:100FB000042020403FC00440040003C00040000063
:100FC000044027C000400000000000100010041082
:100FD00027E00000000020403FC00140070004C09F
:100FE0000440204020403FC000400040000007C0B7
:100FF000040007C0040003C00000044007C0044010
:10100000040003C00040000003800440044003804B
:101010000000041007F004500440038000000000AA
:1010200003800440045007F00010044007C0024051
:10103000040004000000000006400540054004C014
:101040000000000004001F80044000400000040075
:1010500007800040044007C000400400070004C0AF
:10106000018006000400060001C0070001C0060060
:101070000000044006C0010006C004400000041047
:10108000071004E00180060004000000044005C0D1
:101090000640044000000000000004007BE0402007
:1010A0000000000000000000FFF000000000000051
:1010B00040207BE004000000000040008000400071
:1010C00020002000400000000000000000000000A0
:1010D0000000000000000000000000001FCC000C19
:1010E0000000000000000000080030006000080060
:1010F000300060000000022003FC1E20022003FCE0
:101100001E200220000000000E1811043FFF108472
:101110000C78000000000F0010840F3800C0077822
:1011200018840078000000780F8410C411240E98F1
:1011300000E400840008080068007000000000005F
:1011400000000000000000000000000007E0181888
:10115000200440020000000040022004181807E0AC
:101160000000000000000240024001800FF00180FA
:101170000240024000000080008000800FF80080E4
:101180000080008000000001000D000E0000000043
:10119000000000000000000000800080008000804F
:1011A0000080008000800000000C000C00000000A7
:1011B0000000000000000000000600180060018030
:1011C000060018002000000007F0080810041004B2
:1011D000080807F000000000080408041FFC0004D1
:1011E00000040000000000000E0C10141024104435
:1011F00011840E0C000000000C18100411041104DE
:1012000012880C700000000000E003200424082471
:101210001FFC0024000000001F981084110411041A
:10122000108810700000000007F0088811041104F5
:1012300018880070000000001C00100010FC130053
:101240001C001000000000000E38114410841084AF
:1012500011440E38000000000700088C10441044B0
:10126000088807F00000000000000000030C030CD9
:101270000000000000000000000000010106000066
:101280000000000000000000008001400220041067
:101290000808100400000220022002200220022080
:1012A00002200220000000001004080804100220A0
:1012B00001400080000000000E001200100C106CB5
:1012C00010800F00000003E00C1813E4142417C46E
:1012D000082807D000000004003C03C41C4007405D
:1012E00000E4001C000410041FFC1104110411048C
:1012F0000E880070000003E00C18100410041004A5
:1013000010081C10000010041FFC1004100410042E
:10131000080807F0000010041FFC1104110417C492
:1013200010040818000010041FFC1104110017C05D
:1013300010000800000003E00C1810041004104412
:101340001C780040000010041FFC10840080008006
:1013500010841FFC10040000100410041FFC100473
:1013600010040000000000030001100110011FFE26
:1013700010001000000010041FFC1104038014640E
:10138000181C1004000010041FFC100400040004CA
:101390000004000C000010041FFC1F0000FC1F00D4
:1013A0001FFC1004000010041FFC0C04030000E0EC
:1013B00010181FFC100007F0080810041004100497
:1013C000080807F0000010041FFC10841080108033
:1013D00010800F00000007F0081810241024101CC3
:1013E000080A07F2000010041FFC1104110011C0CC
:1013F00011300E0C000400000E1C11041084108427
:1014000010441C3800001800100010041FFC1004C9
:1014100010001800000010001FF810040004000461
:1014200010041FF8100010001E0011E0001C0070D6
:1014300013801C0010001FC0103C00E01F0000E0E3
:10144000103C1FC000001004180C163401C001C06D
:101450001634180C100410001C00130400FC1304B4
:101460001C00100000000804101C106410841304F9
:101470001C04101800000000000000007FFE400265
:10148000400240020000000030000C0003800060B9
:10149000001C0003000000004002400240027FFEEA
:1014A000000000000000000000002000400040009C
:1014B00040002000000000010001000100010001C7
:1014C0000001000100010000400040002000000079
:1014D00000000000000000000098012401440144C5
:1014E000014400FC000410001FFC008801040104FA
:1014F00000880070000000000070008801040104F2
:10150000010400880000000000700088010401044C
:1015100011081FFC0004000000F8014401440144CC
:10152000014400C800000000010401040FFC110484
:10153000110411001800000000D601290129012919
:1015400001C90106000010041FFC00840100010015
:10155000010400FC000400000104190419FC00044B
:101560000004000000000000000300010101190157
:1015700019FE0000000010041FFC0024004001B40C
:10158000010C010400000000100410041FFC000402
:10159000000400000000010401FC0104010001FC42
:1015A0000104010000FC010401FC008401000100B1
:1015B000010400FC0004000000F80104010401041F
:1015C000010400F80000010101FF0085010401048D
:1015D0000088007000000000007000880104010411
:1015E000010501FF00010104010401FC0084010464
:1015F000010001800000000000CC0124012401242E
:1016000001240198000000000100010007F8010416
:10161000010400000000010001F8000400040004BF
:10162000010801FC0004010001800170000C0010A1
:1016300001600180010001F0010C003001C00030A8
:10164000010C01F0010000000104018C0074017024
:10165000018C01040000010101810171000E0018DC
:1016600001600180010000000184010C013401448B
:101670000184010C000000000000000000000100D7
:101680003EFC400240020000000000000000FFFF9E
:101690000000000000000000400240023EFC01008B
:1016A000000000000000000060008000800040009A
:1016B00040002000200008800C60184017FE300019
:1016C00033F8500093F8100013F8120812081208AB
:1016D00013F8120800001040184027FE50409BFCF1
:1016E0003294229463FCA0002FFE20002544252282
:1016F000250A28F820000100010001003FF8210818
:1017000021083FF82108210821083FF8210801029B
:10171000010200FE000000003FF0002000400080B9
:10172000010001000104FFFE0100010001000100B1
:10173000010005000200000058170008000000200A
:1017400004000000280100085C17000804000020C5
:0C175000640600004401000800000000D6
:04000005080000ED02
:00000001FF
